S027000052544F535F4C6162325F4750494F5F54696D6572735F496E74657272757074732E733337E5
S113000000000420C1010000ED010000ED0100002A
S1130010ED010000ED010000ED010000ED01000024
S1130020ED010000ED010000ED010000ED01000014
S1130030ED010000EC010000ED010000353B000083
S1130040ED010000ED010000ED010000ED010000F4
S1130050ED010000ED010000ED010000ED010000E4
S1130060ED010000ED010000B73B000091360000F7
S1130070ED010000ED010000ED010000ED010000C4
S1130080ED010000ED010000C33B0000ED010000A4
S1130090ED010000ED010000ED010000ED010000A4
S11300A0ED010000ED010000ED010000ED01000094
S11300B0ED010000ED010000ED010000ED01000084
S11300C0ED010000ED010000ED010000ED01000074
S11300D0ED010000ED010000ED010000ED01000064
S11300E0ED010000ED010000ED010000ED01000054
S11300F0ED010000ED010000ED010000ED01000044
S1130100ED010000ED010000ED01000010B5054C0B
S1130110237833B9044B13B10448AFF300800123AF
S1130120237010BD7C000020000000007C3F000014
S113013008B5034B1BB103490348AFF3008008BD66
S113014000000000800000207C3F0000154B002BC5
S113015008BF134B9D46A3F5803A00218B460F46FA
S11301601348144A121A03F0CBFD0F4B002B00D096
S113017098470E4B002B00D0984700200021040024
S11301800D000D48002802D00C48AFF3008003F0A6
S113019093FD2000290003F01BFD03F079FD00BF4F
S11301A0000008000000042000000000000000001F
S11301B07C000020CC0000200000000000000000B3
S11301C0064880470649074A074B9A42BEBF51F882
S11301D0040B42F8040BF8E7FFF7B8FFE502000050
S11301E0883F0000000000207C000020FEE700BFE4
S11301F080B582B000AF00F025F878600A4BD3F8E0
S113020008311B0AC3F308033B603B6801337A6877
S1130210B2FBF3F37B60054A7B6813607B68184686
S11302200837BD4680BD00BF00400E4008000020D6
S113023080B400AF024B1846BD465DF8047B70479E
S1130240005A620280B483B000AF1C4BD3F89430E0
S113025003F00703023B032B1BD801A252F823F03F
S1130260810200007902000071020000890200008E
S1130270134B1B687B6010E04FF400437B600CE081
S1130280104B1B687B6008E00F4B1B685B087B60AE
S113029003E00D4B1B687B6000BF084BD3F80031B3
S11302A01B0A03F01F0301337A68B2FBF3F3184609
S11302B00C37BD465DF8047B704700BF00400E401C
S11302C004000020000000200C00002080B400AFD7
S11302D0034B1B681846BD465DF8047B704700BF9E
S11302E00000002080B400AF074B084A9A60064B18
S11302F0D3F88830044A43F47003C2F8883000BF4E
S1130300BD465DF8047B704700ED00E0000000008E
S113031080B400AF4FF400431846BD465DF8047B3B
S1130320704780B400AF4FF47A731846BD465DF849
S1130330047B704780B400AF034B1B681846BD466E
S11303405DF8047B704700BF0400002080B487B0D0
S113035000AFF860B9607A60FB6803F10473DA00F7
S1130360BB6813449B007B617B697A681A6000BF99
S11303701C37BD465DF8047B704780B485B000AF80
S1130380786039607B6803F1C063FB60FB683A689E
S11303901A6000BF1437BD465DF8047B704780B413
S11303A085B000AF786039607B6803F18063FB60DF
S11303B0FB683A681A6000BF1437BD465DF8047BD9
S11303C0704780B584B000AFF860B9607A60B968EE
S11303D0F868FFF7E4FF7968F868FFF7CEFF00BF1D
S11303E01037BD4680BD000080B582B000AF786094
S11303F039607B68B3F1804F07D07B68274A93420A
S113040003D0A721264800F0AFF83B681B693F2BB7
S113041003D9BB21224800F0A7F83B68DB683F2BD7
S113042003D9BC211E4800F09FF83B685B683F2B52
S113043003D9BE211A4800F097F83B681B78DB0704
S11304401A463B685B681B06134343F400427B680F
S11304501A603B68DB681B043A68127A1A437B68AB
S11304609A623B681B691B043A68527A1A437B6898
S1130470DA623B689B7A1B0743F0806343F47D4355
S11304807A68536078683B681B7D1A460021FFF741
S11304905DFF00BF0837BD4680BD00BF00040040BB
S11304A02C3D000080B582B000AF78600B46FB7035
S11304B07B68B3F1804F07D07B68094A934203D02D
S11304C0FA21084800F050F87B680433FA78FF21D9
S11304D01846FFF776FF00BF0837BD4680BD00BF52
S11304E0000400402C3D000080B582B000AF78606D
S11304F07B68B3F1804F08D07B68094A934204D0EB
S11305004FF49071074800F02FF87B681B6823F0C4
S113051001027B681A6000BF0837BD4680BD00BF7A
S1130520000400402C3D000080B582B000AF78602C
S11305307B68B3F1804F08D07B68094A934204D0AA
S11305404FF49B71074800F00FF87B681B6843F079
S113055001027B681A6000BF0837BD4680BD00BF3A
S1130560000400402C3D000080B483B000AF7860EC
S11305703960FEE780B487B000AFF860B9607A6094
S1130580FB6803F10473DA00BB6813449B007B61CE
S11305907B697A681A6000BF1C37BD465DF8047B2E
S11305A0704780B485B000AF786039607B6803F130
S11305B00473DA003B6813449B00FB60FB681B6810
S11305C018461437BD465DF8047B704780B582B089
S11305D000AF78607B681F2B04D94FF496710548EF
S11305E0FFF7C2FF01227B6802FA03F318460837BB
S11305F0BD4680BD403D000080B400AF064B1B6883
S113060003F04003002B01D1012300E0002318462E
S1130610BD465DF8047B70473C300E4080B500AFAA
S1130620FFF7EAFF034683F00103DBB2002B08D196
S113063000BF12210448FFF7B4FF0346002BF8D192
S113064000E000BF80BD00BF04300E4080B500AFA5
S1130650FFF7E4FF034B5B681B0C03F00303DBB2FF
S1130660184680BD00300E4080B584B000AF78607D
S11306700123FB607B68124A934204D80023FB6089
S11306800023BB6008E07B680E4A934202D8012332
S1130690BB6001E00223BB60FA6810210A48FFF73F
S11306A069FF094BD3F8003123F08072BB681B0645
S11306B005491343C1F8003100BF1037BD4680BD62
S11306C00048E8010090D00300400E4080B483B09D
S11306D000AF054B1B687B607B6818460C37BD4632
S11306E05DF8047B704700BF1000002080B582B025
S11306F000AFFFF7A7FD7860064BD3F800311B0A63
S113070003F01F0301337A6802FB03F3184608372A
S1130710BD4680BD00400E4080B582B000AF0F489A
S113072000F068FC0346FB70FB78072B05D0092B0F
S113073007D1FFF787FD78600BE0FFF7C7FF78600C
S113074007E000237B6040F615510548FFF70CFFD6
S113075000BF7B6818460837BD4680BD06000E0002
S11307600C3E000080B584B000AF78607B68002B3D
S11307701CD1204800F03EFC0346FB7200BFFB7A0C
S1130780013B072B28D801A252F823F0BB07000035
S1130790D9070000D9070000C9070000D9070000E5
S11307A0D9070000C1070000D107000040F6355109
S11307B01148FFF7D9FE002317E00023FB6013E084
S11307C0FFF784FFF8600FE0FFF780FDF8600BE0AF
S11307D0FFF78CFFF86007E00023FB6040F64C5104
S11307E00548FFF7C1FE00BFFB6818461037BD4639
S11307F080BD00BFB80032000C3E000080B584B05C
S113080000AF78603960204B5B6803F04073FB6095
S11308100023BB6012E01D4ABB68DB0013441A7955
S11308203B68DBB29A4206D1184ABB6852F83330AF
S11308307A689A4206D9BB680133BB60BB68042B53
S1130840E9D900E000BFBB68052B07D10323FB6097
S113085040F653610E48FFF787FE05E00B4ABB687C
S1130860DB0013445B79FB60FB681B06FB60064BF3
S11308705B6823F040720449FB6813434B6000BF7C
S11308801037BD4680BD00BF00000E40203E000072
S11308900C3E000080B582B000AF0E4B1B6C002BE9
S11308A014BF01230023FB710A4B41F671321A6411
S11308B0FFF7BEFC034600211846FFF79FFFFB79B4
S11308C0002B02D0034B00221A6400BF0837BD4638
S11308D080BD00BF00000E4080B584B000AF7860DA
S11308E039600C4B1B6C002B14BF01230023FB73DA
S11308F0084B41F671321A6439687868FFF77EFF55
S1130900FB7B002B02D0034B00221A6400BF10377C
S1130910BD4680BD00000E4080B487B000AF786053
S11309200F237B617B6803333B617B69FB60FA685F
S11309303B69934228BF1346BB60BB681B07BB607F
S1130940BB6818461C37BD465DF8047B7047000041
S113095080B400AF044B5B6A1B0903F00303184621
S1130960BD465DF8047B704700400E4080B483B000
S113097000AF7860074B5B6A23F030027B681B0191
S1130980044913434B6200BF0C37BD465DF8047B3A
S1130990704700BF00400E4090B585B000AF78604E
S11309A00023BB607B683C4A93420BD03B4A934292
S11309B008D03B4A934205D040F653713948FFF7BB
S11309C0D3FD00E000BF786800F014FB0346FB6031
S11309D07B68314A93420CD0304A934210D0304A5B
S11309E0934214D1304BD3F8803003F00703FB60FB
S11309F013E02D4BD3F8843003F00703FB600CE0C5
S1130A00294BD3F8883003F00703FB6005E040F678
S1130A1082712448FFF7A8FD00BFFB68042B2ED881
S1130A2001A252F823F000BF790A00003D0A000039
S1130A30450A0000550A00004D0A0000FFF768FC53
S1130A40B86024E0FFF776FCB86020E0FFF769FCAB
S1130A50B8601CE0FFF7F6FB0446134BD3F80031F3
S1130A601B0E03F0010301331846FFF7AFFD0346E5
S1130A70B4FBF3F3BB600AE00023BB6007E0002390
S1130A80BB6040F6D4710748FFF76EFD00BFBB683A
S1130A9018461437BD4690BD03002000050024000D
S1130AA002001E000C3E000000400E4080B483B0E3
S1130AB000AF78600A4BD3F8443103F00103002BF4
S1130AC008D100BF064BD3F840217B681340002BAC
S1130AD0F8D100E000BF0C37BD465DF8047B7047D9
S1130AE000400E4080B400AF00BFBD465DF8047BFB
S1130AF0704780B400AF00BFBD465DF8047B70470B
S1130B0080B582B000AF7860786800F093F903464E
S1130B10013318460837BD4680BD000080B586B055
S1130B2000AF78600B46FB7000233B617B681B0AB7
S1130B3003F00F03013B092B32D801A252F823F032
S1130B40690B0000750B0000A10B0000A10B000055
S1130B506F0B00007B0B0000850B0000A10B000055
S1130B608F0B00009B0B00001A4B7B611EE01A4B9D
S1130B707B611BE0194B7B6118E0194B7B610123FE
S1130B803B6113E0174B7B6110233B610EE0164B76
S1130B907B614FF480333B6108E0144B7B6105E0DB
S1130BA041F2F2311248FFF7DFFC10E07B681B0BC7
S1130BB003F01F03FB603B69002B02D03869FFF789
S1130BC075FFFB781A46F9687869FFF7D3FC183784
S1130BD0BD4680BD00400E40B0400E40C0400E40B7
S1130BE0E0400E40E8400E40F0400E4050410E40C0
S1130BF00C3E000090B585B000AF78607B6803F4CC
S1130C007813B3F5B01F00F09480B3F5B01F21D86A
S1130C10B3F5202F58D0B3F5202F08D8B3F5003FF3
S1130C2056D0B3F5802F40D0002B3AD0EBE0B3F58B
S1130C30602F00F0D080B3F5602F03D8B3F5402FB8
S1130C4055D0E0E0B3F5801F00F0C980B3F5A01FD4
S1130C5061D0D8E0B3F5101F00F0B880B3F5101FD1
S1130C600BD8B3F5F01F51D0B3F5001F00F082800C
S1130C70B3F5D01F00F08380C5E0B3F5401F00F04A
S1130C809180B3F5401F03D8B3F5381F63D0BAE0A1
S1130C90B3F5481F00F0A780B3F5781F00F0A880D3
S1130CA0B1E0FFF7CFFAF860B5E0FFF7CBFAF860F0
S1130CB05B4BD3F80C311B0AC3F308030133FA6806
S1130CC0B2FBF3F3FB60A6E0FFF7BCFAF860A2E026
S1130CD0FFF7B8FAF860524BD3F808311B0AC3F394
S1130CE008030133FA68B2FBF3F3FB6093E0FFF708
S1130CF0A9FAF8604A4BD3F814311B0A03F01F0316
S1130D000133FA68B2FBF3F3FB6084E04548FFF774
S1130D1043FEF8607FE04448FFF73EFEF860404B36
S1130D20D3F8303103F00303FA6822FA03F3FB60CB
S1130D3071E03C48FFF730FEF860394BD3F82031BE
S1130D4003F00F031846FFF741FC0246FB68B3FBB0
S1130D50F2F3FB605FE03348FFF71EFEF860304BB0
S1130D60D3F820311B0903F00303FA6822FA03F3D2
S1130D70FB6050E02D48FFF70FFEF8604BE02B4876
S1130D80FFF70AFEF860264BD3F828311B0903F05D
S1130D9003031846FFF71AFC0246FB68B3FBF2F3A1
S1130DA0FB6038E02148FFF7F7FDF8601C4BD3F8EF
S1130DB028311B0A03F0030304331846FFF706FC2B
S1130DC00246FB68B3FBF2F3FB6024E01648FFF72E
S1130DD0E3FDF8601FE0FFF79FFCF8601BE0FFF7FE
S1130DE075FCF86017E00020FFF7BCFCF86012E027
S1130DF0FFF728FA04467868FFF782FE0346B4FB3F
S1130E00F3F3FB6007E00023FB6041F22251084842
S1130E10FFF7AAFB00BFFB6818461437BD4690BD18
S1130E2000400E4002001E000500240003002000C4
S1130E300C3E000080B584B000AF78607B681B096D
S1130E4003F00F03BB60BB68013B092B00F2B780C2
S1130E5001A252F823F000BF810E0000910E0000A1
S1130E60A10E0000C10E0000BF0F0000BF0F000064
S1130E70D10E0000E10E0000390F0000970F0000B2
S1130E80554BD3F800311B0A03F01F03FB609EE0AF
S1130E90514BD3F814311B0A03F01F03FB6096E097
S1130EA04D4BD3F800311B0E03F00103FB60FB68CC
S1130EB001331846FFF78AFB0346013BFB6086E0DB
S1130EC0454BD3F80C311B0AC3F30803FB607EE0E7
S1130ED0414BD3F808311B0AC3F30803FB6076E0E7
S1130EE07B683E4A934203D03D4A93420DD01AE0B8
S1130EF0394BD3F8203103F00F03FB60F868FFF798
S1130F0065FB0346013BFB6015E0334BD3F820310E
S1130F101B0903F00303FB60F868FFF757FB034664
S1130F20013BFB6007E00023FB6041F296512D4832
S1130F30FFF71AFB00BF4AE07B682B4A934203D0B9
S1130F402A4A93420ED01DE0234BD3F828311B09C3
S1130F5003F00303FB60F868FFF738FB0346013B2B
S1130F60FB6017E01C4BD3F828311B0A03F0030382
S1130F70FB60FB6804331846FFF728FB0346013B7C
S1130F80FB6007E00023FB6041F2BA511548FFF70C
S1130F90EBFA00BF1BE07B68154A934206D10E4B67
S1130FA0D3F8303103F00303FB6007E00023FB6058
S1130FB041F2C9510B48FFF7D7FA00BF07E00023FD
S1130FC0FB6041F2EE510748FFF7CEFA00BFFB6821
S1130FD018461037BD4680BD00400E4080061600FE
S1130FE080162E000C3E000090171A009027300047
S1130FF0A009140080B584B000AF78600123FB73AE
S11310007B6803F00F03BB60BB68013B072B00F256
S1131010C48001A252F823F0391000008F100000A0
S1131020BF1000009B1100000511000035110000E5
S11310309B110000591100005E4BD3F8943003F06B
S11310400703023B052B1ED801A252F823F000BF70
S1131050751000006F100000691000007B10000084
S113106087100000811000000223FB730EE00323AD
S1131070FB730BE00423FB7308E00B23FB7305E015
S11310800C23FB7302E00523FB7300BF8DE0494B87
S1131090D3F8803003F00703022B06D0042B07D0CB
S11310A0012B08D10323FB7308E00223FB7305E043
S11310B00A23FB7302E00123FB7300BF75E03D4B81
S11310C0D3F8843003F00703013B032B16D801A2A5
S11310D052F823F0E5100000EB100000F7100000B8
S11310E0F11000000323FB730BE00223FB7308E001
S11310F00A23FB7305E00623FB7302E00123FB7361
S113110000BF52E02B4BD3F8883003F00703022BC7
S113111006D0042B07D0012B08D10323FB7308E06E
S11311200223FB7305E00A23FB7302E00123FB7334
S113113000BF3AE01F4B1B6F03F00103002B04D0E8
S1131140012B05D10923FB7305E00723FB7302E0A0
S11311500123FB7300BF28E0164BD3F85C3103F086
S11311603003102B0CD0102B02D8002B05D010E02C
S1131170202B08D0302B09D00BE00123FB730BE0AC
S11311800723FB7308E00423FB7305E00823FB73C8
S113119002E00123FB7300BF07E00023FB7341F669
S11311A042110548FFF7E0F900BFFB7B18461037F2
S11311B0BD4680BD00400E400C3E000080B58AB0A4
S11311C000AF78600B46FB7003237B62032387F830
S11311D023300023BB6100237B617B68112B19D171
S11311E0FB78042B03D1FFF771F878610BE0FB78EF
S11311F0052B08D100F0F4F90246BA4B9A4202D901
S113120000F0EEF978617B69002B03D00021786946
S113121000F02EFE7B6803F00F033B613B69013B4A
S1131220072B00F2558101A252F823F04D12000061
S11312305713000089130000D11400006B13000041
S113124029140000D114000053140000FB78023B61
S11312500A2B49D801A252F823F000BF89120000DA
S113126095120000A1120000B3120000E912000060
S1131270E9120000E9120000E9120000DD1200008A
S1131280C5120000D112000004237B62002387F8FA
S113129023302FE003237B62012387F8233029E0E6
S11312A002237B62022387F823308F48FFF7DCF99F
S11312B020E001237B62032387F823308A48FFF769
S11312C0D3F917E005237B62032387F8233011E069
S11312D007237B62062387F823300BE041F60321C2
S11312E08248FFF741F9F9E041F608217F48FFF70A
S11312F03BF9F3E097F82330062B06D097F8233018
S113130001220121184600F0B5FAFFF7C3FAFFF7EE
S1131310E9FB7B69002B01D0FFF780F9744A7B6AF3
S11313205367FEF765FFF860FEF78CFF0346184627
S1131330FFF79AF9FFF78AF903461946F868FFF7A9
S1131340CBFA7B69002B03D10121002000F090FD32
S1131350FFF7CFFBC2E0674BBB61FB78062B04D1E0
S113136041F647216148FFF7FFF8BB69002B01D024
S1131370BB6900E0604BBB61FB78062B04D141F6EE
S113138057215A48FFF7F0F8BB69002B01D0BB691D
S113139000E05A4BBB61FB78013B092B3AD801A210
S11313A052F823F0CD130000D3130000E313000020
S11313B01514000015140000F313000015140000A8
S11313C015140000151400000F1400000023FB6125
S11313D026E001220121002000F04CFA0223FB61E7
S11313E01EE001220121012000F044FA0123FB61E7
S11313F016E0FEF727FF03461846FFF735F90122EA
S113140002213F48FFF7B6F80323FB6108E00423F9
S1131410FB6105E041F682213448FFF7A5F85DE061
S1131420BB69FA691A6059E0FB78072B02D0092BD3
S113143004D007E02E4B00221A6709E02C4B01224E
S11314401A6705E041F60C312848FFF78DF845E0AE
S113145044E0FB78013B072B28D801A252F823F083
S113146081140000AD140000AD14000097140000B6
S1131470AD140000AD14000087140000A714000090
S11314800023FB6118E001220121042000F0F2F99D
S11314900123FB6110E001220121022000F0EAF99E
S11314A00223FB6108E00323FB6105E041F66A3196
S11314B00E48FFF759F811E00D4BD3F85C3123F0D7
S11314C03002FB691B010A491343C1F85C3105E092
S11314D041F641410548FFF747F800BF2837BD46AC
S11314E080BD00BF002D31010148E8010C3E000021
S11314F000400E4080400E4088400E4084400E4024
S1131500B0400E4080B483B000AF78607B68294A55
S113151093422FD0274A934210D8274A934221D08E
S1131520254A934203D8254A93421BD03AE0244AE1
S1131530934217D0234A934218D033E0224A93426D
S113154024D0214A934206D8204A934216D0204AF6
S1131550934217D026E01F4A93421BD01E4A93425F
S11315601CD01FE01D4BD3F880301CE01B4BD3F87C
S11315708C3018E0194BD3F8983014E0174BD3F89B
S11315809C3010E0154BD3F8A0300CE0134BD3F88B
S1131590A83008E0114BD3F8AC3004E00F4BD3F87B
S11315A0B03000E0002318460C37BD465DF8047BDC
S11315B0704700BF405DC60080841E0040420F009B
S11315C000093D00C0CF6A0080BA8C010024F400F9
S11315D0C0EA21010048E80180D54302B081E00F50
S11315E080B400AF034B1B681846BD465DF8047B0E
S11315F0704700BF0C00002080B586B000AF786053
S11316007868FFF77FFF78617B69002B03D07B69E3
S1131610B3F1FF3F04D141F6D3514E48FEF7A4FF86
S11316204D4B1B683B614C4A7B6813601120FFF7EC
S1131630E1FC0346052B03D1FFF72CF9FFF752FA1F
S113164000BF18214548FEF7ACFF0346002BF8D134
S11316507B69B3F1FF3F04D141F6E4513D48FEF705
S113166083FF7B683E4A93420DD03E4A934211D099
S11316703D4A934200D012E07B6923F0C06343F0FB
S113168080637B610BE07B6923F0C06343F00073EC
S11316907B6104E07B6923F0C0637B6100BF1120A0
S11316A0FFF7A8FC0346052B02D17868FEF7DCFFA0
S11316B07A683B699A4203D90121786800F0D8FB23
S11316C02A4A7B6913611120FFF794FC0346052B1A
S11316D026D1FEF78DFDF860FA687B689A4204D93A
S11316E041F610611B48FEF73FFF1B4B1B68FA686D
S11316F09A4204D941F611611648FEF735FF164B9C
S11317001B687A689A4204D041F612611148FEF7C8
S11317102BFFFEF79BFF03461946F868FFF7DCF83A
S1131720FEF790FD03461846FEF79EFF7A683B6974
S11317309A4203D80121002000F09AFB1120FFF700
S113174059FC0346052B01D1FFF7D3F900BF183725
S1131750BD4680BD0C3E00000C00002040410E4000
S113176080841E0000093D0040420F0000400E40EE
S113177090B585B000AF78601120FFF73BFC0346BD
S1131780042B04D141F6F1613748FEF7EDFE012246
S11317900021022000F06EF87B685B78002B07D1F3
S11317A07B689B78002B03D17B68DB78002B04D00B
S11317B041F62F712C48FEF7D7FE0023FB607B68AF
S11317C01B7C012B04D141F634712748FEF7CCFE73
S11317D07B681B7C022B01D10123FB60234B5B6ADA
S11317E023F001022149FB6813434B627B681B7899
S11317F01A4608211E48FEF7BDFE7B689B88DB0263
S11318007A68527A1146194A0B43D362174B1B6B01
S113181003F07F627B68DB88DB0213437A68927A89
S11318201A437B681B7ADB0142EA03047B681B7A58
S11318301846FFF771F803460C4A234313637B6889
S11318405B7B1A037B689B7B1B0113437A68D27B07
S11318501A437B681B7B1B04044913434B6300BF7F
S11318601437BD4690BD00BF0C3E000000400E4042
S113187024400E4080B588B000AF0346FB710B4690
S1131880BB7113467B71FB79042B3CD801A252F83F
S113189023F000BFF1180000DF180000BB1800009F
S11318A0A9180000CD18000001237B6102233B61CD
S11318B00123FB610023BB612BE004237B6108232C
S11318C03B610323FB610223BB6122E010237B61A4
S11318D020233B610523FB610423BB6119E0402302
S11318E07B6180233B610723FB610623BB6110E01E
S11318F04FF480737B614FF400733B610923FB61F8
S11319000823BB6105E042F247014548FEF72CFE7F
S113191083E0BB79002B64D00023FB73FB79022B9B
S11319201AD1FFF715F80346002B15D13D4BDB6B9D
S113193003F48063002B04D142F256013848FEF7C9
S113194013FE0123FB73384B5B6A03F00103012B85
S113195002D10120FFF70AF8334A7B69136600BFFE
S1131960B9693248FEF71DFE0346002BF8D07B7997
S1131970002B52D000BFF9692C48FEF712FE034633
S1131980002BF8D0FB79022B47D1FB7B002B44D0F2
S1131990254B5B6A03F00103012B05D101222021B1
S11319A0022000F087F903E00021022000F028F96A
S11319B0022000F03DF8B860012200210220FFF768
S11319C059FFB968022000F071F8174A7B69136661
S11319D000BFF9691548FEF7E4FD0346002BF8D073
S11319E01BE0114A3B69136600BF0F4BD3F89030DC
S11319F00121BA6901FA02F21340002BF5D17B7977
S1131A00002B0AD000BF084BD3F890300121FA69AB
S1131A1001FA02F21340002BF5D12037BD4680BDF8
S1131A200C3E000000300E4000400E4090400E403E
S1131A3080B584B000AF0346FB71FB79013B032BF7
S1131A4023D801A252F823F0591A00007D1A00008D
S1131A50651A0000711A0000124B1B6AC3F30803D5
S1131A60FB601AE00F4B1B6903F07F03FB6014E07B
S1131A700C4B9B6903F07F03FB600EE0094BD3F82A
S1131A809C30C3F30A03FB6007E00023FB6042F2CF
S1131A90D3010548FEF768FD00BFFB681846103700
S1131AA0BD4680BD00400E400C3E000080B584B0B1
S1131AB000AF03463960FB71FB79013B032B00F255
S1131AC08C8001A252F823F0D91A00008D1B00006B
S1131AD0191B0000531B00003B68B3F5007F04D3BF
S1131AE042F2F9014248FEF73FFD3B68C3F30803A5
S1131AF03B6000BF1A213F48FEF753FD0346002B0D
S1131B00F8D13D4B1B6A23F4FF7323F001033A49D8
S1131B103A6813430B6266E03B687F2B04D942F2B8
S1131B2006113348FEF720FD3B6803F07F033B605A
S1131B3000BF18212F48FEF734FD0346002BF8D1CF
S1131B402D4B1B6923F07F022B493B6813430B6128
S1131B5049E03B687F2B04D942F221112448FEF767
S1131B6003FD3B6803F07F033B6000BF192121485C
S1131B70FEF717FD0346002BF8D11F4B9B6923F09A
S1131B807F021D493B6813438B612CE01A4BD3F849
S1131B90903003F00403002B04D042F230111448B7
S1131BA0FEF7E2FC144B5B6A23F03003124A43F065
S1131BB0100353623B68DB0903F00F031846FEF77A
S1131BC0ABFEF8600C4B1A6B0C4B13403A681A438B
S1131BD00949FB6813430B6305E042F24A110448C8
S1131BE0FEF7C2FC00BF00BF1037BD4680BD00BF7A
S1131BF00C3E000040410E4000400E4000F8FF0F34
S1131C0080B584B000AF03460A46FB711346BB712E
S1131C10FB79022B04D042F262112348FEF7A4FCA4
S1131C20FEF796FE0346002B03D14FF44003FB60FE
S1131C301BE0BB79202B04D0302B0AD0002B04D01E
S1131C400BE04FF40003FB600FE04FF44003FB6034
S1131C500BE04FF44003FB6007E0144BFB6042F2DF
S1131C607D111148FEF780FC00BF00BF104BD3F874
S1131C709020FB681340FA689A42F7D1FB6803F49A
S1131C808003002B0AD00A4BD3F8A03003F48063FE
S1131C90002B14BF01230023DBB200E0012318460C
S1131CA01037BD4680BD00BF0C3E0000FF33E10786
S1131CB000400E4080B582B000AF0346FB710B4676
S1131CC0BB7113467B71FB79022B15D1BB79002BB9
S1131CD007D00F4B4FF48062C3F8A8200C4ABB799D
S1131CE053667B79002B0DD0BA79FB7911461846DF
S1131CF0FFF786FF034607E042F2B3110548FEF7FB
S1131D0033FC00E000BF012318460837BD4680BD00
S1131D1000400E400C3E000080B487B000AFF86075
S1131D20B9607A60FB6803F10473DA00BB6813449A
S1131D309B007B617B697A681A6000BF1C37BD46D3
S1131D405DF8047B704780B485B000AF786039607B
S1131D507B6803F10473DA003B6813449B00FB6067
S1131D60FB681B6818461437BD465DF8047B704752
S1131D7080B400AF064B1B6803F04003002B01D175
S1131D80012300E000231846BD465DF8047B70473C
S1131D903C300E4080B500AFFFF7EAFF034683F006
S1131DA00103DBB2002B08D100BF12210448FFF766
S1131DB0CAFF0346002BF8D100E000BF80BD00BF7E
S1131DC004300E4080B500AFFFF7E4FF034B5B68BF
S1131DD01B0C03F00303DBB2184680BD00300E4039
S1131DE080B483B000AF7860044A7B68D36200BFDC
S1131DF00C37BD465DF8047B704700BF00300E40D1
S1131E0080B400AF034B5B6A1846BD465DF8047BA3
S1131E10704700BF00300E4080B400AF034B002277
S1131E205A6300BFBD465DF8047B704700300E4026
S1131E3080B400AF044B4AF6E8525A6300BFBD4673
S1131E405DF8047B704700BF00300E4080B483B05F
S1131E5000AF0346FB71FB79C3F10203102202FABF
S1131E6003F318460C37BD465DF8047B7047000049
S1131E7080B584B000AF78600B46FB70FFF778FF45
S1131E80034683F00103DBB2002B28D17B68002BCF
S1131E900FD1154BD3F800311B0A03F01F03013394
S1131EA0BB60FEF7CFF90246BB6802FB03F3FB609D
S1131EB001E07B68FB600D4B1B78002B09D0FB68AD
S1131EC00B4A934205D8FB781946022000F012F819
S1131ED006E0FB781946002000F00CF800E000BF93
S1131EE01037BD4680BD00BF00400E40A00000205A
S1131EF0002D310190B587B000AF03460A46FB714F
S1131F001346BB71FFF734FF034683F00103DBB2D2
S1131F10002B3AD1FFF756FF03461A46FB7993424A
S1131F2035D01D4BD3F800311B0A03F01F030133D6
S1131F307B61FEF787F938613B697A6902FB03F339
S1131F40FB60FB79022B0CD1FB68144A934204D941
S1131F5040F2E1511248FEF707FB02213869FEF70F
S1131F60BBFC104CFB791846FFF770FF0346236156
S1131F70BB79002B01D0FFF70DFFFB79002B07D1B4
S1131F8000213869FEF7A8FC02E000BF00E000BFB2
S1131F901C37BD4690BD00BF00400E40002D3101EE
S1131FA0483E000000300E4080B582B000AF78603B
S1131FB00E4B1B6823F440727B685B781B020B4951
S1131FC013430B607B685B78022B0AD1084B5B6A76
S1131FD003F00053002B04D040F21D610548FEF7C6
S1131FE0C3FA00BF0837BD4680BD00BF00300E40B5
S1131FF000400E40483E000080B400AF0123184664
S1132000BD465DF8047B704780B582B000AF0C4BD1
S1132010DB6E0B4A43F08073D36600210948FFF757
S113202092FE78607B68002B03D0042000F04EFD04
S113203002E0002000F04AFD00BF0837BD4680BD25
S113204000300E404C300E4080B58AB000AF012302
S11320507B627B6A1B053B62404BDB6C1B0A03F013
S11320600F03FB613E4B1B881A463D4B1B882833EC
S11320705B08134403F12801FB695A1C13469B00B7
S11320801344B1FBF3F3013BBB61BB697B610723E1
S11320903B613A697B69934228BF1346BB61BB69C4
S11320A01B06BB61BB6923F0E063002B04D040F244
S11320B0FF712C48FEF758FA3B6A23F4E003002B27
S11320C004D04FF400612748FEF74EFA234BDB6C33
S11320D023F0EE62B9693B6A0B4320491343CB6496
S11320E0214BB3F90030002B33DB1F4BB3F9003025
S11320F0FB81FA89FB8928335B08134403F1280226
S1132100FB6901335900FB6901335B080B44B2FBE3
S1132110F3F3BB60BB687B6007233B603A687B6872
S1132120934228BF1346BB60BB681B01BB60BB68FE
S113213023F07003002B04D040F618010948FEF781
S113214013FA064B1B6D23F070020449BB6813435A
S11321500B6500BF2837BD4680BD00BF00300E4070
S113216098000020483E00009C00002080B483B00A
S113217000AF78600B467B807B689AB2054B1A806F
S1132180054A7B88138000BF0C37BD465DF8047B8D
S1132190704700BF980000209C00002080B582B0EA
S11321A000AF0346FB71FB79002B02D0012B04D056
S11321B007E0094B094A9A6509E0074B084A9A6502
S11321C005E040F644010748FEF7CEF900BF00BF22
S11321D00837BD4680BD00BF00300E407740205711
S11321E0372110B7483E000080B584B000AF0346E5
S11321F0FB710B46BB7113467B71334BD3F88031B3
S1132200FB60BB79032B1DD801A252F823F000BF59
S11322102122000029220000332200003D22000078
S1132220FB68DBB2FB6014E0FB681B0ADBB2FB60FB
S11322300FE0FB681B0CDBB2FB600AE0FB681B0EC3
S1132240FB6006E040F688012048FEF78DF9002384
S113225036E07B79002B16D1FB681B03FB60FB681F
S113226023F47043002B06D040F693011748FEF781
S11322707BF9002324E0164BDB6E23F470421449EF
S1132280FB681343CB667B79012B18D1FB681B03D6
S1132290FB60FB6823F47043002B06D040F69F01DB
S11322A00A48FEF761F900230AE0094BD3F8EC3041
S11322B023F470420649FB681343C1F8EC30012350
S11322C018461037BD4680BDB081E00F483E00007F
S11322D000300E4080B588B000AFF860B960114698
S11322E01A460B46FB711346BB710023FB610023A6
S11322F0BB61BB791B02FA79002A01D0012200E0FC
S1132300002213437B617B6940F2011293422AD07D
S1132310B3F5817F07D2012B19D0012B47D3B3F535
S1132320807F50D073E040F20122934227D040F2E4
S11323300122934203D8B3F5007F50D067E0B3F590
S1132340407F58D040F20132934224D05FE0384BB2
S1132350D3F87431FB61FB691B0ADBB2BB61FB6917
S1132360DBB2FB6159E0324BD3F87431FB61FB699A
S11323701B0EBB61FB691B0CDBB2FB614DE02C4BFC
S1132380D3F87831FB61FB691B0ADBB2BB61FB69E3
S1132390DBB2FB6141E0264BD3F87831FB61FB698A
S11323A01B0EBB61FB691B0CDBB2FB6135E0204BF0
S11323B0D3F86C31FB61FB691B0ADBB2BB61FB69BF
S11323C0DBB2FB6129E01A4BD3F86C31FB61FB698A
S11323D01B0EBB61FB691B0CDBB2FB611DE0144BE4
S11323E0D3F87031FB61FB691B0ADBB2BB61FB698B
S11323F0DBB2FB6111E00E4BD3F87031FB61FB697A
S11324001B0EBB61FB691B0CDBB2FB6105E040F6F4
S113241004110848FEF7A8F800BFFB68FA691A60BF
S1132420BB68BA691A6000BF2037BD4680BD00BFD3
S1132430B081E00F483E000080B584B000AF034691
S1132440FB713E4B5B6B012B0CBF01230023FB7321
S1132450FFF7EEFC00BF394B9B6F03F00103002B29
S1132460F9D1364B1B6C03F00303BB60BB68002B34
S113247004D001220D213248FFF74EFCBB68DBB2C9
S1132480FA799A4208D1FB79002B53D100220D210D
S11324902B48FFF741FC4DE0BB68032B02D0BB681F
S11324A0002B20D1FB79022B02D0FB79012B1AD10E
S11324B04FF40020FFF794FC00BF204B9B6F03F008
S11324C00103002BF9D11D4B1B6C23F003031B4AA2
S11324D043F00103136400BFFFF792FC034603F4C7
S11324E00023002BF8D000BF144B9B6F03F00103B3
S11324F0002BF9D1114B1B6C23F00302FB790F491C
S113250013430B6400BF0D4B9B6F03F00103002BBF
S1132510F9D1FB79002B14BF01230023DBB21A4647
S11325200D210748FFF7F8FBFB7B002B03D0FFF7D7
S113253073FC00E000BF1037BD4680BD00300E4084
S113254054300E4080B584B000AF78606B4B0222EB
S11325509A636A4B9B6B03F00F03022B06D040F681
S1132560A6116748FEF700F80023C3E0FFF744FD17
S11325707B681B89C82B04D94FF41B616048FDF7A5
S1132580F3FF7B689A887B681B899A4204D940F6DA
S1132590B1115B48FDF7E8FF7B68B3F90C30C82B39
S11325A004DD40F6B2115648FDF7DEFF7B685B7828
S11325B0012B09D17B689B88C82B12D940F6B61130
S11325C04F48FDF7D1FF0CE07B685B78022B08D104
S11325D07B689B880A2B04D940F6BB114848FDF759
S11325E0C3FF7B68DB8842F21072934204D940F641
S11325F0C3114348FDF7B8FF7B68DB884A2B02D838
S11326000023FB6015E07B68DB88B3F5FA7F03D217
S11326104FF08053FB600CE07B68DB8840F6C3120C
S1132620934203D84FF00053FB6002E04FF0405355
S1132630FB60324BDB6C23F0405323F001037A68D8
S1132640B2F90C20002A01DB012100E00021FA6824
S11326500A432A491343CB64284BD3F8EC30274A66
S113266043F44073C2F8EC307B689A88254B1A8097
S1132670FFF7CAFC7B681B891A467B68B3F90C30E8
S113268019461046FFF772FD7B689B88184600F0D8
S1132690A9F97B689B7B1846FFF780FD7B685B8804
S11326A001220121184600F031F8034683F00103AA
S11326B0DBB2002B06D040F6FA111148FDF754FFA7
S11326C0002317E00D4BDB6B0C4A43F48063D363A8
S11326D07B685B781846FFF7AFFE7B689B7A202BFC
S11326E001D1012300E000231A4605210648FFF723
S11326F013FB012318461037BD4680BD00300E4041
S1132700483E00009A0000203C300E4090B595B041
S113271000AF78600B46FB701346BB700023FB646C
S113272000237B6407F1240300221A605A609A6034
S113273007F1180300221A605A609A6007F10C032B
S113274000221A605A609A6007F1080300210A46C1
S11327501A800A469A707B68B3F5E16F06D37B68EA
S113276040F6B832934201D8012300E0002387F8F1
S1132770433097F8433003F0010387F8433097F868
S1132780433083F00103DBB2002B06D040F63F2137
S11327909148FDF7E9FE002319E17B68B3F5E16F89
S11327A08CBF0123002387F8423097F84230002B76
S11327B00AD04FF4E163FB6440F6B8337B647A6C6F
S11327C0FB6CD31ABB6409E04FF49663FB644FF4CB
S11327D0E1637B647A6CFB6CD31ABB6497F8423078
S11327E0002B0BD07D4BD3F868313B623B6A1B0E48
S11327F07B613B6A1B0CDBB23B620AE0774BD3F88C
S113280068313B623B6A1B0ADBB27B613B6ADBB229
S11328103B62734BDB6C1B0FDBB203F00303DBB2D5
S11328203B723B7A97F8422007F10C0107F118003C
S1132830FFF750FD6A4BD3F8EC301B0ADBB203F010
S11328400303DBB27B727C7A97F8422007F10C0316
S1132850191D07F11803181D2346FFF73BFD7A687D
S1132860FB6CD31A79693A6A8A1A02FB03F2BB6CCD
S1132870B2FBF3F3FB62FA6A3B6A1344FB627A68C5
S1132880FB6CD31AF968BA698A1A02FB03F2BB6CAF
S1132890B2FBF3F37B627A6ABB6913447B627A68A6
S11328A0FB6CD31A3969FA698A1A02FB03F2BB6C0E
S11328B0B2FBF3F3BB62BA6AFB691344BB62FA6A04
S11328C07B699A4213D8FA6A3B6A9A420FD3BA6A6E
S11328D03B699A420BD8BA6AFB699A4207D37A6A6F
S11328E0FB689A4203D87A6ABB699A4206D240F6D8
S11328F08D213948FDF738FE002368E0BB78002BB2
S113290012D0374BDB6D23F4FE4323F00203FA6A43
S11329101202134397F84220002A01D0022200E059
S113292000222F491343CB65FB78002B4ED0397A14
S113293097F8423000221846FFF756FC034683F00E
S11329400103DBB2002B06D040F69C212248FDF7A0
S11329500BFE00233BE0797A97F8423001221846B7
S1132960FFF742FC034683F00103DBB2002B06D0E1
S113297040F6A4211848FDF7F7FD002327E07B6A01
S1132980FB63BB6ABB63BA6BFB6B934238BF1346F2
S11329907B627B6A7B63E7233B633A6B7B6B93428B
S11329A028BF13467B620E4B5B6E23F4FF7323F048
S11329B001037A6A5200134397F84220002A01D097
S11329C0012200E00022064913434B660123184606
S11329D05437BD4690BD00BF483E0000B081E00FB3
S11329E000300E4080B584B000AF78600023FB60F7
S11329F0344B1B6F03F00703BB60324BDB6C03F0FB
S1132A000103002B14D0BB68012B11D97B68132B55
S1132A1002D80423FB603DE07B68132B05D97B6857
S1132A20272B02D80823FB6034E01023FB6031E03D
S1132A30244BDB6C03F00103002B14D1BB68012B86
S1132A4011D87B68092B02D80423FB6022E07B6841
S1132A50092B05D97B68132B02D80823FB6019E0E6
S1132A601023FB6016E0174BDB6C03F00103002B13
S1132A700BD0BB68012B08D87B68272B02D808230E
S1132A80FB6007E01023FB6004E040F6E2210E48FF
S1132A90FDF76AFDFB68013BFB60FB681A02FB68FB
S1132AA01B031343FB60074BDB6C23F47F42054994
S1132AB0FB681343CB64FFF7C7FA00BF1037BD466A
S1132AC080BD00BF00300E40483E000080B584B099
S1132AD000AF0346FB7100211148FFF734F9F86099
S1132AE0FB68002B02D1FB79012B07D9FB68002B73
S1132AF004D140F601310B48FDF736FD0A4B1B6F3C
S1132B0023F00702FB79084913430B67074B1B8823
S1132B101846FFF767FF00BF1037BD4680BD00BFF2
S1132B204C300E40483E000000300E409A00002019
S1132B3080B487B000AFF860B9607A60FB6803F1D5
S1132B400473DA00BB6813449B007B617B697A6879
S1132B501A6000BF1C37BD465DF8047B704780B423
S1132B6085B000AF786039607B6803F1C063FB60B7
S1132B70FB683A681A6000BF1437BD465DF8047BF1
S1132B80704780B485B000AF786039607B6803F12A
S1132B908063FB60FB683A681A6000BF1437BD4667
S1132BA05DF8047B704780B584B000AFF860B9600D
S1132BB07A60B968F868FFF7E4FF7968F868FFF7A6
S1132BC0CEFF00BF1037BD4680BD000080B483B087
S1132BD000AF7860044A7B68C2F8243400BF0C3725
S1132BE0BD465DF8047B704700A0004080B582B00C
S1132BF000AF03463960FB71FB79002B38D0FB79B9
S1132C00012B32D0FB79022B2CD0FB79032B26D05D
S1132C10FB79042B21D0FB79052B1BD0FB79062BE8
S1132C2016D0FB79072B11D0FB79082B0CD0FB793C
S1132C30092B06D0FB790A2B01D107231AE00023C4
S1132C4018E04FF4404315E00F2313E0002311E094
S1132C5000230FE04FF6FF730CE000230AE04FF46B
S1132C607F4307E040F6FF7304E04FF6C07301E0D2
S1132C7040F2FF333A68134103F00103002B04D1FF
S1132C804FF477710C48FDF76FFCFA7913465B003B
S1132C9013441B010C3303F1804303F5204301214A
S1132CA03A6801FA02F211461846FFF76AFF00BFBC
S1132CB00837BD4680BD00BF5C3E000080B582B0D1
S1132CC000AF03463960FB71FB79002B38D0FB79E8
S1132CD0012B32D0FB79022B2CD0FB79032B26D08D
S1132CE0FB79042B21D0FB79052B1BD0FB79062B18
S1132CF016D0FB79072B11D0FB79082B0CD0FB796C
S1132D00092B06D0FB790A2B01D107231AE00023F3
S1132D1018E04FF4404315E00F2313E0002311E0C3
S1132D2000230FE04FF6FF730CE000230AE04FF49A
S1132D307F4307E040F6FF7304E04FF6C07301E001
S1132D4040F2FF333A68134103F00103002B04D12E
S1132D5040F20B410C48FDF707FCFA7913465B007F
S1132D6013441B010C3303F1804303F52043012179
S1132D703A6801FA02F211461846FFF7F0FE00BF66
S1132D800837BD4680BD00BF5C3E000080B582B000
S1132D9000AF03463960FB71FB79002B1DD0FB7932
S1132DA0012B1AD0FB79022B17D0FB79032B14D0FB
S1132DB0FB79042B16D0FB79052B0ED0FB79062B5F
S1132DC010D0FB79072B0DD0FB79082B05D0FB79AC
S1132DD0092B02D0FB790A2B04D13B6823F00113A1
S1132DE0002B03D082210B48FDF7BEFBFA79134672
S1132DF05B0013441B0103F1804303F520433A684D
S1132E004FF001111846FFF7CEFE00BF0837BD464C
S1132E1080BD00BFC03E000080B586B000AFB96081
S1132E207A601A460346FB731346BB7300237B6127
S1132E30FB7B002B38D0FB7B012B32D0FB7B022B9E
S1132E402CD0FB7B032B26D0FB7B042B21D0FB7BDC
S1132E50052B1BD0FB7B062B16D0FB7B072B11D03D
S1132E60FB7B082B0CD0FB7B092B06D0FB7B0A2BAE
S1132E7001D107231AE0002318E04FF4404315E082
S1132E800F2313E0002311E000230FE04FF6FF733C
S1132E900CE000230AE04FF47F4307E040F6FF73A1
S1132EA004E04FF6C07301E040F2FF33BA68134107
S1132EB003F00103002B03D1C4213A48FDF754FB6E
S1132EC07A68BB68534023F00303002B03D0C62168
S1132ED03448FDF749FB7B68072B0ED87B689B00C1
S1132EE00F2202FA03F1FA7B7B689B0002FA03F3D8
S1132EF01A462D48FFF757FE10E07B68083B7B61BC
S1132F007B699B000F2202FA03F1FA7B7B699B0029
S1132F1002FA03F31A462548FFF745FE7B68072BA0
S1132F2010D87B689B00032202FA03F1BB6803F00C
S1132F3003027B689B0002FA03F31A461C48FFF75E
S1132F4032FE0FE07B699B00032202FA03F1BB68A7
S1132F5003F003027B699B0002FA03F31A46154847
S1132F60FFF721FEBB7B1A4679681348FFF7E0FDA3
S1132F7097F820301A4679681048FFF7D9FD0122E6
S1132F807B6802FA03F31846FFF720FE97F8243013
S1132F901A4679680A48FFF7CBFD00BF1837BD46CB
S1132FA080BD00BFC03E000000A4004004A4004057
S1132FB008A400400CA4004010A4004014A4004045
S1132FC028A4004080B584B000AFB9607B6003469C
S1132FD0FB731346BB73FB7B002B38D0FB7B012BAD
S1132FE032D0FB7B022B2CD0FB7B032B26D0FB7B2C
S1132FF0042B21D0FB7B052B1BD0FB7B062B16D08F
S1133000FB7B072B11D0FB7B082B0CD0FB7B092B04
S113301006D0FB7B0A2B01D107231AE0002318E01A
S11330204FF4404315E00F2313E0002311E0002385
S11330300FE04FF6FF730CE000230AE04FF47F43E8
S113304007E040F6FF7304E04FF6C07301E040F27E
S1133050FF33BA68134103F00103002B04D140F29B
S11330601B113948FDF780FABB7B002B0DD07B6820
S1133070002B05D0FB7BB9681846FFF71FFE04E060
S1133080FB7BB9681846FFF7B1FDBB68072B20D856
S11330902E49FA7B13465B0013441B010B44043393
S11330A01A68BB689B000F2101FA03F3DB4313404A
S11330B0B97BBA68920001FA02F211462348FA7BFE
S11330C0194313465B0013441B0103440433196082
S11330D025E01E49FA7B13465B0013441B010B4495
S11330E008331A68BB6803F18043083B9B000F2137
S11330F001FA03F3DB4302EA0301BA7BBB6803F181
S11331008043083B9B0002FA03F31048FA7B1943FF
S113311013465B0013441B01034408331960BB7B53
S1133120002B0DD17B68002B05D0FB7BB9681846BA
S1133130FFF7C4FD04E0FB7BB9681846FFF756FDB2
S113314000BF1037BD4680BDC03E000000A0004057
S113315080B485B000AF786039607B6803F1047394
S1133160DA003B6813449B00FB60FB681B6818464D
S11331701437BD465DF8047B704780B485B000AF5A
S1133180786039607B6803F1C063FB60FB683A6870
S11331901A6000BF1437BD465DF8047B704780B4E5
S11331A085B000AF786039607B6803F18063FB60B1
S11331B0FB683A681A6000BF1437BD465DF8047BAB
S11331C07047000080B582B000AF03463960FB71E0
S11331D0FB79002B38D0FB79012B32D0FB79022B01
S11331E02CD0FB79032B26D0FB79042B21D0FB793F
S11331F0052B1BD0FB79062B16D0FB79072B11D09E
S1133200FB79082B0CD0FB79092B06D0FB790A2B10
S113321001D107231AE0002318E04FF4404315E0DE
S11332200F2313E0002311E000230FE04FF6FF7398
S11332300CE000230AE04FF47F4307E040F6FF73FD
S113324004E04FF6C07301E040F2FF333A681341E3
S113325003F00103002B04D140F2AD310A48FDF71D
S113326083F9FA7913465B0013441B011C3303F101
S1133270804303F5204339681846FFF769FF034686
S113328018460837BD4680BDD43E000080B582B0E4
S113329000AF03463960FB71FB79002B38D0FB7912
S11332A0012B32D0FB79022B2CD0FB79032B26D0B7
S11332B0FB79042B21D0FB79052B1BD0FB79062B42
S11332C016D0FB79072B11D0FB79082B0CD0FB7996
S11332D0092B06D0FB790A2B01D107231AE000231E
S11332E018E04FF4404315E00F2313E0002311E0EE
S11332F000230FE04FF6FF730CE000230AE04FF4C5
S11333007F4307E040F6FF7304E04FF6C07301E02B
S113331040F2FF333A68134103F00103002B04D158
S11333204FF477710C48FDF71FF9FA7913465B00E7
S113333013441B010C3303F1804303F520430121A3
S11333403A6801FA02F211461846FFF728FF00BF57
S11333500837BD4680BD00BFD43E000080B582B0B2
S113336000AF03463960FB71FB79002B38D0FB7941
S1133370012B32D0FB79022B2CD0FB79032B26D0E6
S1133380FB79042B21D0FB79052B1BD0FB79062B71
S113339016D0FB79072B11D0FB79082B0CD0FB79C5
S11333A0092B06D0FB790A2B01D107231AE000234D
S11333B018E04FF4404315E00F2313E0002311E01D
S11333C000230FE04FF6FF730CE000230AE04FF4F4
S11333D07F4307E040F6FF7304E04FF6C07301E05B
S11333E040F2FF333A68134103F00103002B04D188
S11333F040F20B410C48FDF7B7F8FA7913465B002D
S113340013441B010C3303F1804303F520430121D2
S11334103A6801FA02F211461846FFF7AEFE00BF01
S11334200837BD4680BD00BFD43E000080B500AF64
S113343000F04AFA00F08DFA00BF80BD80B500AFFD
S113344006210520FFF7BEFE0346002B03D1044BE3
S113345001221A7002E0024B00221A7000BF80BDE4
S1133460A100002080B500AF07210520FFF7AAFEC8
S11334700346002B03D1044B01221A7002E0024BD5
S113348000221A7000BF80BDA200002098B500AFD2
S113349000F092F9032000F039F903461C4602209B
S11334A000F034F903462343DBB2002B16D000208E
S11334B000F02CF903461C46012000F027F90346CE
S11334C02343DBB283F00103DBB2002B06D0194B9C
S11334D001221A70184B00221A7029E0002000F013
S11334E015F903461C46012000F010F90346234356
S11334F0DBB2002B16D0032000F008F903461C466B
S1133500022000F003F903462343DBB283F00103F6
S1133510DBB2002B06D0084B01221A70054B0022A7
S11335201A7005E0034B00221A70034B00221A7034
S113353000BF98BDA4000020A300002080B500AF08
S1133540384B1B781A46384B1B781A40374B1B787C
S11335501946374B1B780B401343002B08D0052129
S11335600520FFF7FBFE04210520FFF7F7FE57E0D7
S11335702D4B1B781A462E4B1B7883F00103DBB2CC
S11335801A402A4B1B781946274B1B780B402849B5
S113359009780B401A43254B1B781946224B1B789C
S11335A00B401343214A12781343002B08D0042103
S11335B00520FFF7D3FE05210520FFF767FE2FE066
S11335C01B4B1B781A46184B1B7883F00103DBB2A4
S11335D01A40144B1B781946154B1B780B401249A3
S11335E009780B401A430F4B1B781946104B1B7874
S11335F00B4013430B4A12781343002B08D00521C8
S11336000520FFF7ABFE04210520FFF73FFE07E08E
S113361004210520FFF73AFE05210520FFF736FEB9
S113362000BF80BDA4000020A1000020A300002052
S1133630A200002080B483B000AF0346FB7197F969
S11336400730002B0BDBFB7903F01F02074997F9C6
S113365007305B09012000FA02F241F8232000BF81
S11336600C37BD465DF8047B704700BF00E100E005
S113367080B400AF054B1B69044A23F004031361B3
S113368030BF00BFBD465DF8047B704700ED00E02D
S113369080B483B000AF174B02225A60164B02224B
S11336A05A60144B01225A61134B5B6A7B60134BC3
S11336B01B78DBB21946124A7B6842F821300F4B63
S11336C01B78DBB21A460F4B53F822307A689A42C1
S11336D007D90A4B1B78DBB219460A4A7B6842F8C1
S11336E02130094B01221A7000BF0C37BD465DF82A
S11336F0047B70470080014000840140A500002045
S1133700A8000020B8000020A600002080B485B0E6
S113371000AF0346FB71FB790D4A52F82330FB607E
S1133720FB790B4A52F823309B08FA68D31AFB60E2
S1133730FB79084A52F82330FA689A4201D90123E6
S113374000E0002318461437BD465DF8047B70473B
S1133750B8000020A800002080B582B000AF034666
S1133760FB71FB7919464FF08040FCF79BFE0F4B31
S113377000225A620E4B00225A620E4B00221A702B
S11337800A4B01225A600A4B01225A6001E0FFF7FA
S11337906FFF084B1B78DBB283F00103DBB2002B15
S11337A0F5D100BF0837BD4680BD00BF0080014091
S11337B000840140A600002080B500AF4FF0804097
S11337C0FCF7B2FE0F4B00221A700FE00D4B1B7872
S11337D0DBB21A460C4B9B5C1846FFF7BDFF094B46
S11337E01B78DBB20133DAB2064B1A70054B1B7837
S11337F0DBB2032BEAD94FF08040FCF775FE00BF23
S113380080BD00BFA5000020383F0000B0B586B0E1
S113381000AF224B3C461D460FCD0FC495E8030074
S113382084E8030001211E48FDF778F901211D48B1
S1133830FDF774F901211C48FDF770F901211B48BB
S1133840FDF76CF901214FF48A40FDF767F9184B35
S11338504FF010621A60164B0A22DA61144B0122EF
S11338609A61134B00225A62124B134A1A60114B8D
S11338704FF6FF72DA610F4B104A1A67104B114A68
S11338801A653B4619464FF08040FCF7ADFD0B200E
S1133890FFF7D0FE00BF1837BD46B0BD3C3F000067
S11338A040410500000204000012040000A20400CC
S11338B000800140008401400000010A0100002A48
S11338C000600E400003100080B500AF05211120F8
S11338D0FDF774FC01210D48FDF720F900220021B9
S11338E00120FDF7C7FF002200210020FDF7C2FFE1
S11338F00A210748FDF762FC01210648FDF70EF98D
S113390001210548FDF70AF900BF80BD40410500CB
S113391002001E0030253E0000350A0080B584B048
S113392002AF396011461A460346FB710B46BB7160
S113393013467B71BA79F8793B7C01937B790093C8
S113394013463A683968FFF767FA00BF0837BD467F
S113395080BD80B582B002AF4FF001110520FFF7A2
S113396015FA0023042204210520FFF72BFB4FF056
S113397001110520FFF70AFA00230422052105207E
S1133980FFF720FB0123022206210520FFF71AFB83
S1133990012300930123012206210520FFF7BEFF26
S11339A00123022207210520FFF70CFB01230093CA
S11339B00123012207210520FFF7B0FF00BFBD4608
S11339C080BD000080B483B000AF03463960FB7152
S11339D097F90730002B0ADB3B68DAB20C4997F9F8
S11339E007305201D2B20B4483F800230AE03B684B
S11339F0DAB20849FB7903F00F03043B5201D2B257
S1133A000B441A7600BF0C37BD465DF8047B704743
S1133A1000E100E000ED00E080B582B000AF786026
S1133A207B68013BB3F1807F01D301230FE00A4A95
S1133A307B68013B536007214FF0FF30FFF7C2FF63
S1133A40054B00229A60044B07221A600023184693
S1133A500837BD4680BD00BF10E000E080B400AF71
S1133A60044BDB6C1B0EDBB21846BD465DF8047BD1
S1133A70704700BFB081E00F80B483B000AF7860BE
S1133A80044A7B68C2F8243400BF0C37BD465DF895
S1133A90047B704700A0004080B400AF034BD3F810
S1133AA01C341846BD465DF8047B704700A00040F6
S1133AB080B582B000AF194B01225A64FFF7CEFFE4
S1133AC00346FB71FB79002B0CD1154B4AF6E852E7
S1133AD01A60144B1B68134A43F004031360104B21
S1133AE000221A60FB79012B05D80F4B1B680E4A84
S1133AF043F4005313600D4B1B6A23F444130B4A25
S1133B0043F4881313620A4B1B68094A43F4F843CD
S1133B10136000BF0837BD4680BD00BF00000E40E3
S1133B2090310E4098310E4064310E4000400E40FA
S1133B30A4310E4080B400AF044B1B680133034A28
S1133B40136000BFBD465DF8047B7047C8000020C9
S1133B5080B485B000AF7860084B1B68FB6000BF81
S1133B60064B1A68FB68D31A7A689A42F8D800BFE1
S1133B701437BD465DF8047B704700BFC8000020C1
S1133B8080B582B000AFFFF787FF78607868FFF7F1
S1133B9073FF7B6803F04003002B01D0FFF74EFC5A
S1133BA07B6803F08003002B01D0FFF75BFC00BFB0
S1133BB00837BD4680BD80B500AFFFF7E1FF00BF09
S1133BC080BD80B500AFFFF7DBFF00BF80BD000004
S1133BD0B0B58AB000AF294B07F118040FCB84E8C5
S1133BE00F00274B3C1D1D460FCD0FC42B682380AF
S1133BF0FFF75EFF2348FDF7FFFC00233B70002323
S1133C007B7007F118031846FEF79CFC02237B70B7
S1133C103B461846FEF7C8F93B1D1846FDF7A8FDBC
S1133C20012201210320FDF725FE05211120FDF7C6
S1133C30C5FA002200210220FDF71CFE1248FCF701
S1133C40D9FF0246114BA3FB02239B091846FFF739
S1133C50E3FE0346002B00D0FEE7FFF7D7FDFFF796
S1133C60E5FB6420FFF774FFFFF7FCFBFFF7E6FBBF
S1133C70FFF70CFCFFF762FCF3E700BF543F0000C2
S1133C80643F00000024F40070000200D34D621071
S1133C9008B5074B044613B10021AFF30080054B70
S1133CA01868836A03B19847204600F031F800BFD2
S1133CB000000000783F000070B50D4E0D4CA41BB1
S1133CC0A4100025A54209D10B4E0C4C00F022F89B
S1133CD0A41BA4100025A54205D170BD56F82530BB
S1133CE098470135EEE756F8253098470135F2E755
S1133CF0740000207400002074000020780000206C
S1133D0002440346934200D1704703F8011BF9E7CC
S1133D10FEE700BFF8B500BFF8BC08BC9E4670477C
S1133D20F8B500BFF8BC08BC9E4670472E2E2F6520
S1133D306D6C69622F656D5F61636D702E63000049
S1133D40633A5C73696C69636F6E6C6162735C7314
S1133D50696D706C696369747973747564696F5C97
S1133D6076345C646576656C6F7065725C73646BE5
S1133D70735C6765636B6F5F73646B5F73756974A2
S1133D80655C76322E375C706C6174666F726D5C44
S1133D90656D6C69625C696E635C656D5F636F6DB4
S1133DA06D6F6E2E68000000633A5C73696C696322
S1133DB06F6E6C6162735C73696D706C6963697456
S1133DC07973747564696F5C76345C646576656C6C
S1133DD06F7065725C73646B735C6765636B6F5F54
S1133DE073646B5F73756974655C76322E375C70CF
S1133DF06C6174666F726D5C656D6C69625C696E32
S1133E00635C656D5F636D752E6800002E2E2F65F3
S1133E106D6C69622F656D5F636D752E63000000C4
S1133E2040787D0100000000005A62020001000099
S1133E30C0CF6A0002000000809FD500020100008C
S1133E40002D3101020200002E2E2F656D6C696277
S1133E502F656D5F656D752E63000000633A5C73BA
S1133E60696C69636F6E6C6162735C73696D706CAD
S1133E70696369747973747564696F5C76345C64BE
S1133E806576656C6F7065725C73646B735C676593
S1133E90636B6F5F73646B5F73756974655C7632B3
S1133EA02E375C706C6174666F726D5C656D6C69E5
S1133EB0625C696E635C656D5F6770696F2E680034
S1133EC02E2E2F656D6C69622F656D5F6770696F4B
S1133ED02E630000633A5C73696C69636F6E6C6196
S1133EE062735C73696D706C6963697479737475FA
S1133EF064696F5C76345C646576656C6F7065725A
S1133F005C73646B735C6765636B6F5F73646B5F37
S1133F1073756974655C76322E375C706C61746697
S1133F206F726D5C656D6C69625C696E635C656D16
S1133F305F6770696F2E6800204122430000000013
S1133F4020000000080805003000000010000000F8
S1133F50010000000002080705000A00C800000074
S1133F60FFFF010001000000A00068010A2007060D
S1133F70020A0407000000001400002000000000F2
S10B3F80CCC1FF7F0100000029
S1133F88005A620200800000C0EA2101C0EA21014F
S1133F98C0EA210100000000000000000000000049
S1133FA80000000000000000000000000000000005
S1133FB800000000000000000000000000000000F5
S1133FC800000000000000000000000000000000E5
S1133FD800000000000000000000000000000000D5
S1133FE800000000000000000000000000000000C5
S10F3FF800000000310100000D01000079
S90301C13A
